{
  "_format": "hh-sol-artifact-1",
  "contractName": "mintContract",
  "sourceName": "contracts/mintContract.sol",
  "abi": [
    {
      "inputs": [
        {
          "internalType": "string",
          "name": "_name",
          "type": "string"
        },
        {
          "internalType": "string",
          "name": "_symbol",
          "type": "string"
        }
      ],
      "stateMutability": "nonpayable",
      "type": "constructor"
    },
    {
      "anonymous": false,
      "inputs": [
        {
          "indexed": true,
          "internalType": "address",
          "name": "owner",
          "type": "address"
        },
        {
          "indexed": true,
          "internalType": "address",
          "name": "approved",
          "type": "address"
        },
        {
          "indexed": true,
          "internalType": "uint256",
          "name": "tokenId",
          "type": "uint256"
        }
      ],
      "name": "Approval",
      "type": "event"
    },
    {
      "anonymous": false,
      "inputs": [
        {
          "indexed": true,
          "internalType": "address",
          "name": "owner",
          "type": "address"
        },
        {
          "indexed": true,
          "internalType": "address",
          "name": "operator",
          "type": "address"
        },
        {
          "indexed": false,
          "internalType": "bool",
          "name": "approved",
          "type": "bool"
        }
      ],
      "name": "ApprovalForAll",
      "type": "event"
    },
    {
      "anonymous": false,
      "inputs": [
        {
          "indexed": true,
          "internalType": "address",
          "name": "nft",
          "type": "address"
        },
        {
          "indexed": false,
          "internalType": "uint256",
          "name": "tokenId",
          "type": "uint256"
        },
        {
          "indexed": false,
          "internalType": "uint256",
          "name": "price",
          "type": "uint256"
        },
        {
          "indexed": true,
          "internalType": "address",
          "name": "seller",
          "type": "address"
        },
        {
          "indexed": true,
          "internalType": "address",
          "name": "buyer",
          "type": "address"
        }
      ],
      "name": "Bought",
      "type": "event"
    },
    {
      "anonymous": false,
      "inputs": [
        {
          "indexed": true,
          "internalType": "address",
          "name": "nftContract",
          "type": "address"
        },
        {
          "indexed": true,
          "internalType": "uint256",
          "name": "tokenId",
          "type": "uint256"
        },
        {
          "indexed": false,
          "internalType": "address",
          "name": "seller",
          "type": "address"
        },
        {
          "indexed": false,
          "internalType": "address",
          "name": "owner",
          "type": "address"
        },
        {
          "indexed": false,
          "internalType": "uint256",
          "name": "price",
          "type": "uint256"
        }
      ],
      "name": "MarketItemCreated",
      "type": "event"
    },
    {
      "anonymous": false,
      "inputs": [
        {
          "indexed": true,
          "internalType": "address",
          "name": "from",
          "type": "address"
        },
        {
          "indexed": true,
          "internalType": "address",
          "name": "to",
          "type": "address"
        },
        {
          "indexed": true,
          "internalType": "uint256",
          "name": "tokenId",
          "type": "uint256"
        }
      ],
      "name": "Transfer",
      "type": "event"
    },
    {
      "inputs": [
        {
          "internalType": "address",
          "name": "to",
          "type": "address"
        },
        {
          "internalType": "uint256",
          "name": "tokenId",
          "type": "uint256"
        }
      ],
      "name": "approve",
      "outputs": [],
      "stateMutability": "nonpayable",
      "type": "function"
    },
    {
      "inputs": [
        {
          "internalType": "address",
          "name": "owner",
          "type": "address"
        }
      ],
      "name": "balanceOf",
      "outputs": [
        {
          "internalType": "uint256",
          "name": "",
          "type": "uint256"
        }
      ],
      "stateMutability": "view",
      "type": "function"
    },
    {
      "inputs": [],
      "name": "feeAccount",
      "outputs": [
        {
          "internalType": "address payable",
          "name": "",
          "type": "address"
        }
      ],
      "stateMutability": "view",
      "type": "function"
    },
    {
      "inputs": [],
      "name": "feePercent",
      "outputs": [
        {
          "internalType": "uint256",
          "name": "",
          "type": "uint256"
        }
      ],
      "stateMutability": "view",
      "type": "function"
    },
    {
      "inputs": [
        {
          "internalType": "uint256",
          "name": "tokenId",
          "type": "uint256"
        }
      ],
      "name": "getApproved",
      "outputs": [
        {
          "internalType": "address",
          "name": "",
          "type": "address"
        }
      ],
      "stateMutability": "view",
      "type": "function"
    },
    {
      "inputs": [
        {
          "internalType": "uint256",
          "name": "tokenId",
          "type": "uint256"
        }
      ],
      "name": "getTotalPrice",
      "outputs": [
        {
          "internalType": "uint256",
          "name": "",
          "type": "uint256"
        }
      ],
      "stateMutability": "view",
      "type": "function"
    },
    {
      "inputs": [
        {
          "internalType": "address",
          "name": "owner",
          "type": "address"
        },
        {
          "internalType": "address",
          "name": "operator",
          "type": "address"
        }
      ],
      "name": "isApprovedForAll",
      "outputs": [
        {
          "internalType": "bool",
          "name": "",
          "type": "bool"
        }
      ],
      "stateMutability": "view",
      "type": "function"
    },
    {
      "inputs": [
        {
          "internalType": "uint256",
          "name": "",
          "type": "uint256"
        }
      ],
      "name": "marketItems",
      "outputs": [
        {
          "internalType": "address",
          "name": "nftContract",
          "type": "address"
        },
        {
          "internalType": "uint256",
          "name": "tokenId",
          "type": "uint256"
        },
        {
          "internalType": "address payable",
          "name": "seller",
          "type": "address"
        },
        {
          "internalType": "address payable",
          "name": "owner",
          "type": "address"
        },
        {
          "internalType": "uint256",
          "name": "price",
          "type": "uint256"
        },
        {
          "internalType": "bool",
          "name": "sold",
          "type": "bool"
        }
      ],
      "stateMutability": "view",
      "type": "function"
    },
    {
      "inputs": [],
      "name": "name",
      "outputs": [
        {
          "internalType": "string",
          "name": "",
          "type": "string"
        }
      ],
      "stateMutability": "view",
      "type": "function"
    },
    {
      "inputs": [
        {
          "internalType": "uint256",
          "name": "tokenId",
          "type": "uint256"
        }
      ],
      "name": "ownerOf",
      "outputs": [
        {
          "internalType": "address",
          "name": "",
          "type": "address"
        }
      ],
      "stateMutability": "view",
      "type": "function"
    },
    {
      "inputs": [
        {
          "internalType": "uint256",
          "name": "tokenId",
          "type": "uint256"
        },
        {
          "internalType": "address",
          "name": "to",
          "type": "address"
        }
      ],
      "name": "purchaseItem",
      "outputs": [],
      "stateMutability": "payable",
      "type": "function"
    },
    {
      "inputs": [
        {
          "internalType": "address",
          "name": "to",
          "type": "address"
        },
        {
          "internalType": "uint256",
          "name": "price",
          "type": "uint256"
        }
      ],
      "name": "safeMint",
      "outputs": [
        {
          "internalType": "uint256",
          "name": "",
          "type": "uint256"
        }
      ],
      "stateMutability": "nonpayable",
      "type": "function"
    },
    {
      "inputs": [
        {
          "internalType": "address",
          "name": "from",
          "type": "address"
        },
        {
          "internalType": "address",
          "name": "to",
          "type": "address"
        },
        {
          "internalType": "uint256",
          "name": "tokenId",
          "type": "uint256"
        }
      ],
      "name": "safeTransferFrom",
      "outputs": [],
      "stateMutability": "nonpayable",
      "type": "function"
    },
    {
      "inputs": [
        {
          "internalType": "address",
          "name": "from",
          "type": "address"
        },
        {
          "internalType": "address",
          "name": "to",
          "type": "address"
        },
        {
          "internalType": "uint256",
          "name": "tokenId",
          "type": "uint256"
        },
        {
          "internalType": "bytes",
          "name": "_data",
          "type": "bytes"
        }
      ],
      "name": "safeTransferFrom",
      "outputs": [],
      "stateMutability": "nonpayable",
      "type": "function"
    },
    {
      "inputs": [
        {
          "internalType": "address",
          "name": "operator",
          "type": "address"
        },
        {
          "internalType": "bool",
          "name": "approved",
          "type": "bool"
        }
      ],
      "name": "setApprovalForAll",
      "outputs": [],
      "stateMutability": "nonpayable",
      "type": "function"
    },
    {
      "inputs": [
        {
          "internalType": "bytes4",
          "name": "interfaceId",
          "type": "bytes4"
        }
      ],
      "name": "supportsInterface",
      "outputs": [
        {
          "internalType": "bool",
          "name": "",
          "type": "bool"
        }
      ],
      "stateMutability": "view",
      "type": "function"
    },
    {
      "inputs": [],
      "name": "symbol",
      "outputs": [
        {
          "internalType": "string",
          "name": "",
          "type": "string"
        }
      ],
      "stateMutability": "view",
      "type": "function"
    },
    {
      "inputs": [
        {
          "internalType": "uint256",
          "name": "tokenId",
          "type": "uint256"
        }
      ],
      "name": "tokenURI",
      "outputs": [
        {
          "internalType": "string",
          "name": "",
          "type": "string"
        }
      ],
      "stateMutability": "view",
      "type": "function"
    },
    {
      "inputs": [
        {
          "internalType": "address",
          "name": "from",
          "type": "address"
        },
        {
          "internalType": "address",
          "name": "to",
          "type": "address"
        },
        {
          "internalType": "uint256",
          "name": "tokenId",
          "type": "uint256"
        }
      ],
      "name": "transferFrom",
      "outputs": [],
      "stateMutability": "nonpayable",
      "type": "function"
    },
    {
      "inputs": [
        {
          "internalType": "address",
          "name": "from",
          "type": "address"
        },
        {
          "internalType": "address payable",
          "name": "to",
          "type": "address"
        },
        {
          "internalType": "address",
          "name": "token",
          "type": "address"
        },
        {
          "internalType": "uint256",
          "name": "amount",
          "type": "uint256"
        }
      ],
      "name": "transferTokens",
      "outputs": [],
      "stateMutability": "nonpayable",
      "type": "function"
    }
  ],
  "bytecode": "0x608060405260026007553480156200001657600080fd5b5060405162003a7b38038062003a7b83398181016040528101906200003c91906200019c565b81818160009080519060200190620000569291906200007a565b5080600190805190602001906200006f9291906200007a565b50505050506200037f565b8280546200008890620002a4565b90600052602060002090601f016020900481019282620000ac5760008555620000f8565b82601f10620000c757805160ff1916838001178555620000f8565b82800160010185558215620000f8579182015b82811115620000f7578251825591602001919060010190620000da565b5b5090506200010791906200010b565b5090565b5b80821115620001265760008160009055506001016200010c565b5090565b6000620001416200013b8462000238565b6200020f565b9050828152602081018484840111156200015a57600080fd5b620001678482856200026e565b509392505050565b600082601f8301126200018157600080fd5b8151620001938482602086016200012a565b91505092915050565b60008060408385031215620001b057600080fd5b600083015167ffffffffffffffff811115620001cb57600080fd5b620001d9858286016200016f565b925050602083015167ffffffffffffffff811115620001f757600080fd5b62000205858286016200016f565b9150509250929050565b60006200021b6200022e565b9050620002298282620002da565b919050565b6000604051905090565b600067ffffffffffffffff8211156200025657620002556200033f565b5b62000261826200036e565b9050602081019050919050565b60005b838110156200028e57808201518184015260208101905062000271565b838111156200029e576000848401525b50505050565b60006002820490506001821680620002bd57607f821691505b60208210811415620002d457620002d362000310565b5b50919050565b620002e5826200036e565b810181811067ffffffffffffffff821117156200030757620003066200033f565b5b80604052505050565b7f4e487b7100000000000000000000000000000000000000000000000000000000600052602260045260246000fd5b7f4e487b7100000000000000000000000000000000000000000000000000000000600052604160045260246000fd5b6000601f19601f8301169050919050565b6136ec806200038f6000396000f3fe60806040526004361061011f5760003560e01c806370a08231116100a0578063a22cb46511610064578063a22cb46514610403578063b88d4fde1461042c578063c87b56dd14610455578063ca7dd37514610492578063e985e9c5146104cf5761011f565b806370a08231146103175780637bfe9efd146103545780637fd6f15c1461037057806395d89b411461039b578063a1448194146103c65761011f565b806342842e0e116100e757806342842e0e1461021b57806351f28e14146102445780636352211e1461028657806365e17c9d146102c357806368155ec1146102ee5761011f565b806301ffc9a71461012457806306fdde0314610161578063081812fc1461018c578063095ea7b3146101c957806323b872dd146101f2575b600080fd5b34801561013057600080fd5b5061014b6004803603810190610146919061257b565b61050c565b6040516101589190612b1f565b60405180910390f35b34801561016d57600080fd5b506101766105ee565b6040516101839190612b3a565b60405180910390f35b34801561019857600080fd5b506101b360048036038101906101ae91906125cd565b610680565b6040516101c09190612997565b60405180910390f35b3480156101d557600080fd5b506101f060048036038101906101eb919061253f565b610705565b005b3480156101fe57600080fd5b5061021960048036038101906102149190612439565b61081d565b005b34801561022757600080fd5b50610242600480360381019061023d9190612439565b610876565b005b34801561025057600080fd5b5061026b600480360381019061026691906125cd565b610896565b60405161027d96959493929190612abe565b60405180910390f35b34801561029257600080fd5b506102ad60048036038101906102a891906125cd565b61093f565b6040516102ba9190612997565b60405180910390f35b3480156102cf57600080fd5b506102d86109f1565b6040516102e591906129b2565b60405180910390f35b3480156102fa57600080fd5b50610315600480360381019061031091906123d6565b610a17565b005b34801561032357600080fd5b5061033e60048036038101906103399190612371565b610b3a565b60405161034b9190612d7c565b60405180910390f35b61036e600480360381019061036991906125f6565b610bf2565b005b34801561037c57600080fd5b50610385610f96565b6040516103929190612d7c565b60405180910390f35b3480156103a757600080fd5b506103b0610f9c565b6040516103bd9190612b3a565b60405180910390f35b3480156103d257600080fd5b506103ed60048036038101906103e8919061253f565b61102e565b6040516103fa9190612d7c565b60405180910390f35b34801561040f57600080fd5b5061042a60048036038101906104259190612503565b611241565b005b34801561043857600080fd5b50610453600480360381019061044e9190612488565b611257565b005b34801561046157600080fd5b5061047c600480360381019061047791906125cd565b6112b9565b6040516104899190612b3a565b60405180910390f35b34801561049e57600080fd5b506104b960048036038101906104b491906125cd565b611360565b6040516104c69190612d7c565b60405180910390f35b3480156104db57600080fd5b506104f660048036038101906104f1919061239a565b6113a5565b6040516105039190612b1f565b60405180910390f35b60007f80ac58cd000000000000000000000000000000000000000000000000000000007bffffffffffffffffffffffffffffffffffffffffffffffffffffffff1916827bffffffffffffffffffffffffffffffffffffffffffffffffffffffff191614806105d757507f5b5e139f000000000000000000000000000000000000000000000000000000007bffffffffffffffffffffffffffffffffffffffffffffffffffffffff1916827bffffffffffffffffffffffffffffffffffffffffffffffffffffffff1916145b806105e757506105e682611439565b5b9050919050565b6060600080546105fd9061306c565b80601f01602080910402602001604051908101604052809291908181526020018280546106299061306c565b80156106765780601f1061064b57610100808354040283529160200191610676565b820191906000526020600020905b81548152906001019060200180831161065957829003601f168201915b5050505050905090565b600061068b826114a3565b6106ca576040517f08c379a00000000000000000000000000000000000000000000000000000000081526004016106c190612cfc565b60405180910390fd5b6004600083815260200190815260200160002060009054906101000a900473ffffffffffffffffffffffffffffffffffffffff169050919050565b60006107108261093f565b90508073ffffffffffffffffffffffffffffffffffffffff168373ffffffffffffffffffffffffffffffffffffffff161415610781576040517f08c379a000000000000000000000000000000000000000000000000000000000815260040161077890612d3c565b60405180910390fd5b8073ffffffffffffffffffffffffffffffffffffffff166107a061150f565b73ffffffffffffffffffffffffffffffffffffffff1614806107cf57506107ce816107c961150f565b6113a5565b5b61080e576040517f08c379a000000000000000000000000000000000000000000000000000000000815260040161080590612c5c565b60405180910390fd5b6108188383611517565b505050565b61082783826115d0565b610866576040517f08c379a000000000000000000000000000000000000000000000000000000000815260040161085d90612d5c565b60405180910390fd5b6108718383836116ae565b505050565b61089183838360405180602001604052806000815250611257565b505050565b60096020528060005260406000206000915090508060000160009054906101000a900473ffffffffffffffffffffffffffffffffffffffff16908060010154908060020160009054906101000a900473ffffffffffffffffffffffffffffffffffffffff16908060030160009054906101000a900473ffffffffffffffffffffffffffffffffffffffff16908060040154908060050160009054906101000a900460ff16905086565b6000806002600084815260200190815260200160002060009054906101000a900473ffffffffffffffffffffffffffffffffffffffff169050600073ffffffffffffffffffffffffffffffffffffffff168173ffffffffffffffffffffffffffffffffffffffff1614156109e8576040517f08c379a00000000000000000000000000000000000000000000000000000000081526004016109df90612c9c565b60405180910390fd5b80915050919050565b600860009054906101000a900473ffffffffffffffffffffffffffffffffffffffff1681565b600073ffffffffffffffffffffffffffffffffffffffff168273ffffffffffffffffffffffffffffffffffffffff1614610abf578173ffffffffffffffffffffffffffffffffffffffff166323b872dd8585846040518463ffffffff1660e01b8152600401610a8893929190612a04565b600060405180830381600087803b158015610aa257600080fd5b505af1158015610ab6573d6000803e3d6000fd5b50505050610b34565b8273ffffffffffffffffffffffffffffffffffffffff166108fc829081150290604051600060405180830381858888f19350505050610b33576040517f08c379a0000000000000000000000000000000000000000000000000000000008152600401610b2a90612cbc565b60405180910390fd5b5b50505050565b60008073ffffffffffffffffffffffffffffffffffffffff168273ffffffffffffffffffffffffffffffffffffffff161415610bab576040517f08c379a0000000000000000000000000000000000000000000000000000000008152600401610ba290612c7c565b60405180910390fd5b600360008373ffffffffffffffffffffffffffffffffffffffff1673ffffffffffffffffffffffffffffffffffffffff168152602001908152602001600020549050919050565b6000610bfd83611360565b90506000600960008581526020019081526020016000206040518060c00160405290816000820160009054906101000a900473ffffffffffffffffffffffffffffffffffffffff1673ffffffffffffffffffffffffffffffffffffffff1673ffffffffffffffffffffffffffffffffffffffff168152602001600182015481526020016002820160009054906101000a900473ffffffffffffffffffffffffffffffffffffffff1673ffffffffffffffffffffffffffffffffffffffff1673ffffffffffffffffffffffffffffffffffffffff1681526020016003820160009054906101000a900473ffffffffffffffffffffffffffffffffffffffff1673ffffffffffffffffffffffffffffffffffffffff1673ffffffffffffffffffffffffffffffffffffffff168152602001600482015481526020016005820160009054906101000a900460ff161515151581525050905081341015610d95576040517f08c379a0000000000000000000000000000000000000000000000000000000008152600401610d8c90612b5c565b60405180910390fd5b8060a0015115610dda576040517f08c379a0000000000000000000000000000000000000000000000000000000008152600401610dd190612b7c565b60405180910390fd5b806040015173ffffffffffffffffffffffffffffffffffffffff166108fc82608001519081150290604051600060405180830381858888f19350505050158015610e28573d6000803e3d6000fd5b5060018160a0019015159081151581525050806000015173ffffffffffffffffffffffffffffffffffffffff166323b872dd826040015185876040518463ffffffff1660e01b8152600401610e7f939291906129cd565b600060405180830381600087803b158015610e9957600080fd5b505af1158015610ead573d6000803e3d6000fd5b50505050826009600086815260200190815260200160002060030160006101000a81548173ffffffffffffffffffffffffffffffffffffffff021916908373ffffffffffffffffffffffffffffffffffffffff1602179055508273ffffffffffffffffffffffffffffffffffffffff16816040015173ffffffffffffffffffffffffffffffffffffffff163073ffffffffffffffffffffffffffffffffffffffff167feb63d138ac814e90b4d90e51c5d97954429da77f7266e9aa0bf33bd9863f131d84602001518560800151604051610f88929190612d97565b60405180910390a450505050565b60075481565b606060018054610fab9061306c565b80601f0160208091040260200160405190810160405280929190818152602001828054610fd79061306c565b80156110245780601f10610ff957610100808354040283529160200191611024565b820191906000526020600020905b81548152906001019060200180831161100757829003601f168201915b5050505050905090565b60008061103b6006611915565b90506110478482611923565b6040518060c001604052803073ffffffffffffffffffffffffffffffffffffffff1681526020018281526020018573ffffffffffffffffffffffffffffffffffffffff168152602001600073ffffffffffffffffffffffffffffffffffffffff168152602001848152602001600015158152506009600083815260200190815260200160002060008201518160000160006101000a81548173ffffffffffffffffffffffffffffffffffffffff021916908373ffffffffffffffffffffffffffffffffffffffff1602179055506020820151816001015560408201518160020160006101000a81548173ffffffffffffffffffffffffffffffffffffffff021916908373ffffffffffffffffffffffffffffffffffffffff16021790555060608201518160030160006101000a81548173ffffffffffffffffffffffffffffffffffffffff021916908373ffffffffffffffffffffffffffffffffffffffff1602179055506080820151816004015560a08201518160050160006101000a81548160ff0219169083151502179055509050506111e36006611941565b803073ffffffffffffffffffffffffffffffffffffffff167f4e87d65c4baed28b185aa1f2f583850f4140e7ee01ee27c4e06f622d085b1bfc8660008760405161122f93929190612a3b565b60405180910390a38091505092915050565b61125361124c61150f565b8383611957565b5050565b61126861126261150f565b836115d0565b6112a7576040517f08c379a000000000000000000000000000000000000000000000000000000000815260040161129e90612d5c565b60405180910390fd5b6112b384848484611ac4565b50505050565b60606112c4826114a3565b611303576040517f08c379a00000000000000000000000000000000000000000000000000000000081526004016112fa90612d1c565b60405180910390fd5b600061130d611b20565b9050600081511161132d5760405180602001604052806000815250611358565b8061133784611b37565b604051602001611348929190612973565b6040516020818303038152906040525b915050919050565b6000606460075460646113739190612e59565b60096000858152602001908152602001600020600401546113949190612ee0565b61139e9190612eaf565b9050919050565b6000600560008473ffffffffffffffffffffffffffffffffffffffff1673ffffffffffffffffffffffffffffffffffffffff16815260200190815260200160002060008373ffffffffffffffffffffffffffffffffffffffff1673ffffffffffffffffffffffffffffffffffffffff16815260200190815260200160002060009054906101000a900460ff16905092915050565b60007f01ffc9a7000000000000000000000000000000000000000000000000000000007bffffffffffffffffffffffffffffffffffffffffffffffffffffffff1916827bffffffffffffffffffffffffffffffffffffffffffffffffffffffff1916149050919050565b60008073ffffffffffffffffffffffffffffffffffffffff166002600084815260200190815260200160002060009054906101000a900473ffffffffffffffffffffffffffffffffffffffff1673ffffffffffffffffffffffffffffffffffffffff1614159050919050565b600033905090565b816004600083815260200190815260200160002060006101000a81548173ffffffffffffffffffffffffffffffffffffffff021916908373ffffffffffffffffffffffffffffffffffffffff160217905550808273ffffffffffffffffffffffffffffffffffffffff1661158a8361093f565b73ffffffffffffffffffffffffffffffffffffffff167f8c5be1e5ebec7d5bd14f71427d1e84f3dd0314c0f7b2291e5b200ac8c7c3b92560405160405180910390a45050565b60006115db826114a3565b61161a576040517f08c379a000000000000000000000000000000000000000000000000000000000815260040161161190612c3c565b60405180910390fd5b60006116258361093f565b90508073ffffffffffffffffffffffffffffffffffffffff168473ffffffffffffffffffffffffffffffffffffffff16148061169457508373ffffffffffffffffffffffffffffffffffffffff1661167c84610680565b73ffffffffffffffffffffffffffffffffffffffff16145b806116a557506116a481856113a5565b5b91505092915050565b8273ffffffffffffffffffffffffffffffffffffffff166116ce8261093f565b73ffffffffffffffffffffffffffffffffffffffff1614611724576040517f08c379a000000000000000000000000000000000000000000000000000000000815260040161171b90612bbc565b60405180910390fd5b600073ffffffffffffffffffffffffffffffffffffffff168273ffffffffffffffffffffffffffffffffffffffff161415611794576040517f08c379a000000000000000000000000000000000000000000000000000000000815260040161178b90612bfc565b60405180910390fd5b61179f838383611c5b565b6117aa600082611517565b6001600360008573ffffffffffffffffffffffffffffffffffffffff1673ffffffffffffffffffffffffffffffffffffffff16815260200190815260200160002060008282546117fa9190612f3a565b925050819055506001600360008473ffffffffffffffffffffffffffffffffffffffff1673ffffffffffffffffffffffffffffffffffffffff16815260200190815260200160002060008282546118519190612e59565b92505081905550816002600083815260200190815260200160002060006101000a81548173ffffffffffffffffffffffffffffffffffffffff021916908373ffffffffffffffffffffffffffffffffffffffff160217905550808273ffffffffffffffffffffffffffffffffffffffff168473ffffffffffffffffffffffffffffffffffffffff167fddf252ad1be2c89b69c2b068fc378daa952ba7f163c4a11628f55a4df523b3ef60405160405180910390a4611910838383611c60565b505050565b600081600001549050919050565b61193d828260405180602001604052806000815250611c65565b5050565b6001816000016000828254019250508190555050565b8173ffffffffffffffffffffffffffffffffffffffff168373ffffffffffffffffffffffffffffffffffffffff1614156119c6576040517f08c379a00000000000000000000000000000000000000000000000000000000081526004016119bd90612c1c565b60405180910390fd5b80600560008573ffffffffffffffffffffffffffffffffffffffff1673ffffffffffffffffffffffffffffffffffffffff16815260200190815260200160002060008473ffffffffffffffffffffffffffffffffffffffff1673ffffffffffffffffffffffffffffffffffffffff16815260200190815260200160002060006101000a81548160ff0219169083151502179055508173ffffffffffffffffffffffffffffffffffffffff168373ffffffffffffffffffffffffffffffffffffffff167f17307eab39ab6107e8899845ad3d59bd9653f200f220920489ca2b5937696c3183604051611ab79190612b1f565b60405180910390a3505050565b611acf8484846116ae565b611adb84848484611cc0565b611b1a576040517f08c379a0000000000000000000000000000000000000000000000000000000008152600401611b1190612b9c565b60405180910390fd5b50505050565b606060405180602001604052806000815250905090565b606060006001611b4684611e57565b01905060008167ffffffffffffffff811115611b8b577f4e487b7100000000000000000000000000000000000000000000000000000000600052604160045260246000fd5b6040519080825280601f01601f191660200182016040528015611bbd5781602001600182028036833780820191505090505b509050600082602001820190505b600115611c50578080600190039150507f3031323334353637383961626364656600000000000000000000000000000000600a86061a8153600a8581611c3a577f4e487b7100000000000000000000000000000000000000000000000000000000600052601260045260246000fd5b0494506000851415611c4b57611c50565b611bcb565b819350505050919050565b505050565b505050565b611c6f838361208e565b611c7c6000848484611cc0565b611cbb576040517f08c379a0000000000000000000000000000000000000000000000000000000008152600401611cb290612b9c565b60405180910390fd5b505050565b6000611ce18473ffffffffffffffffffffffffffffffffffffffff16612268565b15611e4a578373ffffffffffffffffffffffffffffffffffffffff1663150b7a02611d0a61150f565b8786866040518563ffffffff1660e01b8152600401611d2c9493929190612a72565b602060405180830381600087803b158015611d4657600080fd5b505af1925050508015611d7757506040513d601f19601f82011682018060405250810190611d7491906125a4565b60015b611dfa573d8060008114611da7576040519150601f19603f3d011682016040523d82523d6000602084013e611dac565b606091505b50600081511415611df2576040517f08c379a0000000000000000000000000000000000000000000000000000000008152600401611de990612b9c565b60405180910390fd5b805181602001fd5b63150b7a0260e01b7bffffffffffffffffffffffffffffffffffffffffffffffffffffffff1916817bffffffffffffffffffffffffffffffffffffffffffffffffffffffff191614915050611e4f565b600190505b949350505050565b600080600090507a184f03e93ff9f4daa797ed6e38ed64bf6a1f0100000000000000008310611edb577a184f03e93ff9f4daa797ed6e38ed64bf6a1f0100000000000000008381611ed1577f4e487b7100000000000000000000000000000000000000000000000000000000600052601260045260246000fd5b0492506040810190505b6d04ee2d6d415b85acef81000000008310611f3e576d04ee2d6d415b85acef81000000008381611f34577f4e487b7100000000000000000000000000000000000000000000000000000000600052601260045260246000fd5b0492506020810190505b662386f26fc100008310611f9357662386f26fc100008381611f89577f4e487b7100000000000000000000000000000000000000000000000000000000600052601260045260246000fd5b0492506010810190505b6305f5e1008310611fe2576305f5e1008381611fd8577f4e487b7100000000000000000000000000000000000000000000000000000000600052601260045260246000fd5b0492506008810190505b612710831061202d576127108381612023577f4e487b7100000000000000000000000000000000000000000000000000000000600052601260045260246000fd5b0492506004810190505b60648310612076576064838161206c577f4e487b7100000000000000000000000000000000000000000000000000000000600052601260045260246000fd5b0492506002810190505b600a8310612085576001810190505b80915050919050565b600073ffffffffffffffffffffffffffffffffffffffff168273ffffffffffffffffffffffffffffffffffffffff1614156120fe576040517f08c379a00000000000000000000000000000000000000000000000000000000081526004016120f590612cdc565b60405180910390fd5b612107816114a3565b15612147576040517f08c379a000000000000000000000000000000000000000000000000000000000815260040161213e90612bdc565b60405180910390fd5b61215360008383611c5b565b6001600360008473ffffffffffffffffffffffffffffffffffffffff1673ffffffffffffffffffffffffffffffffffffffff16815260200190815260200160002060008282546121a39190612e59565b92505081905550816002600083815260200190815260200160002060006101000a81548173ffffffffffffffffffffffffffffffffffffffff021916908373ffffffffffffffffffffffffffffffffffffffff160217905550808273ffffffffffffffffffffffffffffffffffffffff16600073ffffffffffffffffffffffffffffffffffffffff167fddf252ad1be2c89b69c2b068fc378daa952ba7f163c4a11628f55a4df523b3ef60405160405180910390a461226460008383611c60565b5050565b6000808273ffffffffffffffffffffffffffffffffffffffff163b119050919050565b600061229e61229984612de5565b612dc0565b9050828152602081018484840111156122b657600080fd5b6122c184828561302a565b509392505050565b6000813590506122d881613643565b92915050565b6000813590506122ed8161365a565b92915050565b60008135905061230281613671565b92915050565b60008135905061231781613688565b92915050565b60008151905061232c81613688565b92915050565b600082601f83011261234357600080fd5b813561235384826020860161228b565b91505092915050565b60008135905061236b8161369f565b92915050565b60006020828403121561238357600080fd5b6000612391848285016122c9565b91505092915050565b600080604083850312156123ad57600080fd5b60006123bb858286016122c9565b92505060206123cc858286016122c9565b9150509250929050565b600080600080608085870312156123ec57600080fd5b60006123fa878288016122c9565b945050602061240b878288016122de565b935050604061241c878288016122c9565b925050606061242d8782880161235c565b91505092959194509250565b60008060006060848603121561244e57600080fd5b600061245c868287016122c9565b935050602061246d868287016122c9565b925050604061247e8682870161235c565b9150509250925092565b6000806000806080858703121561249e57600080fd5b60006124ac878288016122c9565b94505060206124bd878288016122c9565b93505060406124ce8782880161235c565b925050606085013567ffffffffffffffff8111156124eb57600080fd5b6124f787828801612332565b91505092959194509250565b6000806040838503121561251657600080fd5b6000612524858286016122c9565b9250506020612535858286016122f3565b9150509250929050565b6000806040838503121561255257600080fd5b6000612560858286016122c9565b92505060206125718582860161235c565b9150509250929050565b60006020828403121561258d57600080fd5b600061259b84828501612308565b91505092915050565b6000602082840312156125b657600080fd5b60006125c48482850161231d565b91505092915050565b6000602082840312156125df57600080fd5b60006125ed8482850161235c565b91505092915050565b6000806040838503121561260957600080fd5b60006126178582860161235c565b9250506020612628858286016122c9565b9150509250929050565b61263b81612ff4565b82525050565b61264a81612f80565b82525050565b61265981612f6e565b82525050565b61266881612f92565b82525050565b600061267982612e16565b6126838185612e2c565b9350612693818560208601613039565b61269c8161318b565b840191505092915050565b60006126b282612e21565b6126bc8185612e3d565b93506126cc818560208601613039565b6126d58161318b565b840191505092915050565b60006126eb82612e21565b6126f58185612e4e565b9350612705818560208601613039565b80840191505092915050565b600061271e603383612e3d565b91506127298261319c565b604082019050919050565b6000612741601183612e3d565b915061274c826131eb565b602082019050919050565b6000612764603283612e3d565b915061276f82613214565b604082019050919050565b6000612787602583612e3d565b915061279282613263565b604082019050919050565b60006127aa601c83612e3d565b91506127b5826132b2565b602082019050919050565b60006127cd602483612e3d565b91506127d8826132db565b604082019050919050565b60006127f0601983612e3d565b91506127fb8261332a565b602082019050919050565b6000612813602c83612e3d565b915061281e82613353565b604082019050919050565b6000612836603883612e3d565b9150612841826133a2565b604082019050919050565b6000612859602a83612e3d565b9150612864826133f1565b604082019050919050565b600061287c602983612e3d565b915061288782613440565b604082019050919050565b600061289f602283612e3d565b91506128aa8261348f565b604082019050919050565b60006128c2602083612e3d565b91506128cd826134de565b602082019050919050565b60006128e5602c83612e3d565b91506128f082613507565b604082019050919050565b6000612908602f83612e3d565b915061291382613556565b604082019050919050565b600061292b602183612e3d565b9150612936826135a5565b604082019050919050565b600061294e603183612e3d565b9150612959826135f4565b604082019050919050565b61296d81612fea565b82525050565b600061297f82856126e0565b915061298b82846126e0565b91508190509392505050565b60006020820190506129ac6000830184612650565b92915050565b60006020820190506129c76000830184612641565b92915050565b60006060820190506129e26000830186612632565b6129ef6020830185612650565b6129fc6040830184612964565b949350505050565b6000606082019050612a196000830186612650565b612a266020830185612632565b612a336040830184612964565b949350505050565b6000606082019050612a506000830186612650565b612a5d6020830185612650565b612a6a6040830184612964565b949350505050565b6000608082019050612a876000830187612650565b612a946020830186612650565b612aa16040830185612964565b8181036060830152612ab3818461266e565b905095945050505050565b600060c082019050612ad36000830189612650565b612ae06020830188612964565b612aed6040830187612641565b612afa6060830186612641565b612b076080830185612964565b612b1460a083018461265f565b979650505050505050565b6000602082019050612b34600083018461265f565b92915050565b60006020820190508181036000830152612b5481846126a7565b905092915050565b60006020820190508181036000830152612b7581612711565b9050919050565b60006020820190508181036000830152612b9581612734565b9050919050565b60006020820190508181036000830152612bb581612757565b9050919050565b60006020820190508181036000830152612bd58161277a565b9050919050565b60006020820190508181036000830152612bf58161279d565b9050919050565b60006020820190508181036000830152612c15816127c0565b9050919050565b60006020820190508181036000830152612c35816127e3565b9050919050565b60006020820190508181036000830152612c5581612806565b9050919050565b60006020820190508181036000830152612c7581612829565b9050919050565b60006020820190508181036000830152612c958161284c565b9050919050565b60006020820190508181036000830152612cb58161286f565b9050919050565b60006020820190508181036000830152612cd581612892565b9050919050565b60006020820190508181036000830152612cf5816128b5565b9050919050565b60006020820190508181036000830152612d15816128d8565b9050919050565b60006020820190508181036000830152612d35816128fb565b9050919050565b60006020820190508181036000830152612d558161291e565b9050919050565b60006020820190508181036000830152612d7581612941565b9050919050565b6000602082019050612d916000830184612964565b92915050565b6000604082019050612dac6000830185612964565b612db96020830184612964565b9392505050565b6000612dca612ddb565b9050612dd6828261309e565b919050565b6000604051905090565b600067ffffffffffffffff821115612e0057612dff61315c565b5b612e098261318b565b9050602081019050919050565b600081519050919050565b600081519050919050565b600082825260208201905092915050565b600082825260208201905092915050565b600081905092915050565b6000612e6482612fea565b9150612e6f83612fea565b9250827fffffffffffffffffffffffffffffffffffffffffffffffffffffffffffffffff03821115612ea457612ea36130cf565b5b828201905092915050565b6000612eba82612fea565b9150612ec583612fea565b925082612ed557612ed46130fe565b5b828204905092915050565b6000612eeb82612fea565b9150612ef683612fea565b9250817fffffffffffffffffffffffffffffffffffffffffffffffffffffffffffffffff0483118215151615612f2f57612f2e6130cf565b5b828202905092915050565b6000612f4582612fea565b9150612f5083612fea565b925082821015612f6357612f626130cf565b5b828203905092915050565b6000612f7982612fca565b9050919050565b6000612f8b82612fca565b9050919050565b60008115159050919050565b60007fffffffff0000000000000000000000000000000000000000000000000000000082169050919050565b600073ffffffffffffffffffffffffffffffffffffffff82169050919050565b6000819050919050565b6000612fff82613006565b9050919050565b600061301182613018565b9050919050565b600061302382612fca565b9050919050565b82818337600083830152505050565b60005b8381101561305757808201518184015260208101905061303c565b83811115613066576000848401525b50505050565b6000600282049050600182168061308457607f821691505b602082108114156130985761309761312d565b5b50919050565b6130a78261318b565b810181811067ffffffffffffffff821117156130c6576130c561315c565b5b80604052505050565b7f4e487b7100000000000000000000000000000000000000000000000000000000600052601160045260246000fd5b7f4e487b7100000000000000000000000000000000000000000000000000000000600052601260045260246000fd5b7f4e487b7100000000000000000000000000000000000000000000000000000000600052602260045260246000fd5b7f4e487b7100000000000000000000000000000000000000000000000000000000600052604160045260246000fd5b6000601f19601f8301169050919050565b7f6e6f7420656e6f756768206d6174696320746f20636f766572206974656d207060008201527f7269636520616e64206d61726b65742066656500000000000000000000000000602082015250565b7f6974656d20616c726561647920736f6c64000000000000000000000000000000600082015250565b7f4552433732313a207472616e7366657220746f206e6f6e20455243373231526560008201527f63656976657220696d706c656d656e7465720000000000000000000000000000602082015250565b7f4552433732313a207472616e736665722066726f6d20696e636f72726563742060008201527f6f776e6572000000000000000000000000000000000000000000000000000000602082015250565b7f4552433732313a20746f6b656e20616c7265616479206d696e74656400000000600082015250565b7f4552433732313a207472616e7366657220746f20746865207a65726f2061646460008201527f7265737300000000000000000000000000000000000000000000000000000000602082015250565b7f4552433732313a20617070726f766520746f2063616c6c657200000000000000600082015250565b7f4552433732313a206f70657261746f7220717565727920666f72206e6f6e657860008201527f697374656e7420746f6b656e0000000000000000000000000000000000000000602082015250565b7f4552433732313a20617070726f76652063616c6c6572206973206e6f74206f7760008201527f6e6572206e6f7220617070726f76656420666f7220616c6c0000000000000000602082015250565b7f4552433732313a2062616c616e636520717565727920666f7220746865207a6560008201527f726f206164647265737300000000000000000000000000000000000000000000602082015250565b7f4552433732313a206f776e657220717565727920666f72206e6f6e657869737460008201527f656e7420746f6b656e0000000000000000000000000000000000000000000000602082015250565b7f5472616e73666572206f662045544820746f207265636569766572206661696c60008201527f6564000000000000000000000000000000000000000000000000000000000000602082015250565b7f4552433732313a206d696e7420746f20746865207a65726f2061646472657373600082015250565b7f4552433732313a20617070726f76656420717565727920666f72206e6f6e657860008201527f697374656e7420746f6b656e0000000000000000000000000000000000000000602082015250565b7f4552433732314d657461646174613a2055524920717565727920666f72206e6f60008201527f6e6578697374656e7420746f6b656e0000000000000000000000000000000000602082015250565b7f4552433732313a20617070726f76616c20746f2063757272656e74206f776e6560008201527f7200000000000000000000000000000000000000000000000000000000000000602082015250565b7f4552433732313a207472616e736665722063616c6c6572206973206e6f74206f60008201527f776e6572206e6f7220617070726f766564000000000000000000000000000000602082015250565b61364c81612f6e565b811461365757600080fd5b50565b61366381612f80565b811461366e57600080fd5b50565b61367a81612f92565b811461368557600080fd5b50565b61369181612f9e565b811461369c57600080fd5b50565b6136a881612fea565b81146136b357600080fd5b5056fea264697066735822122006b46da507e7b0019437ed3bf44a7461571107cf52de69cac9126a51433bc19a64736f6c63430008040033",
  "linkReferences": {},
  "deployedLinkReferences": {}
}